{
    "contractName": "Counter",
    "abi": [
        {
            "inputs": [],
            "name": "count",
            "outputs": [
                {
                    "internalType": "uint256",
                    "name": "",
                    "type": "uint256"
                }
            ],
            "stateMutability": "view",
            "type": "function"
        },
        {
            "inputs": [],
            "name": "incrementCount",
            "outputs": [],
            "stateMutability": "nonpayable",
            "type": "function"
        }
    ],
    "bytecode": "6080806040523460175760055f5560b29081601c8239f35b5f80fdfe60808060405260043610156011575f80fd5b5f3560e01c90816306661abd146065575063e5071b8e14602f575f80fd5b346061575f3660031901126061575f5460018101809111604d575f55005b634e487b7160e01b5f52601160045260245ffd5b5f80fd5b346061575f3660031901126061576020905f548152f3fea2646970667358221220466cc423bbc69ba762250d24a80ed3c41d166f198cd32b6712cfff708bad2d2d64736f6c63430008230033",
    "sourcePath": "c:/Users/rambo/OneDrive/Desktop/code2/understanding Blockchain/contracts/Counter.sol",
    "compiler": {
        "name": "solc",
        "version": "0.8.35+commit.47b9dedd"
    },
    "functionHashes": {
        "count()": "06661abd",
        "incrementCount()": "e5071b8e"
    },
    "gasEstimates": {
        "creation": {
            "codeDepositCost": "35600",
            "executionCost": "22198",
            "totalCost": "57798"
        },
        "external": {
            "count()": "2247",
            "incrementCount()": "24383"
        }
    }
}